{
  "transactions": [
    {
      "hash": "0x7bfb7e4db3d1183afcca2fda8daf6289dc74cac0acc689b9b9438d8f56ccfbbc",
      "transactionType": "CALL",
      "contractName": null,
      "contractAddress": "0x0af39c275ed7698f6e5b4c676f3396db88db5ed9",
      "function": "mint(address,string,string,uint256,string)",
      "arguments": [
        "0x424bBA2a6f1c14e4D8e2Cf1bCAE1B06740Fa4755",
        "This token is the first avatar",
        "ipfs://bafkreidk42gcnifgom4uqc74huhqvxz72yjfdshjqjkwukow3oiwnuku7e",
        "10000000000000000",
        "ipfs://bafkreidk42gcnifgom4uqc74huhqvxz72yjfdshjqjkwukow3oiwnuku7e"
      ],
      "transaction": {
        "from": "0xb76c4d0bdc1b1508b66a36be5fdc362cc79988b3",
        "to": "0x0af39c275ed7698f6e5b4c676f3396db88db5ed9",
        "gas": "0x7b49b",
        "value": "0x0",
        "input": "0xfd1c0657000000000000000000000000424bba2a6f1c14e4d8e2cf1bcae1b06740fa475500000000000000000000000000000000000000000000000000000000000000a000000000000000000000000000000000000000000000000000000000000000e0000000000000000000000000000000000000000000000000002386f26fc100000000000000000000000000000000000000000000000000000000000000000160000000000000000000000000000000000000000000000000000000000000001e5468697320746f6b656e206973207468652066697273742061766174617200000000000000000000000000000000000000000000000000000000000000000042697066733a2f2f6261666b726569646b343267636e6966676f6d3475716337346875687176787a3732796a666473686a716a6b77756b6f77336f69776e756b7537650000000000000000000000000000000000000000000000000000000000000000000000000000000000000000000000000000000000000000000000000042697066733a2f2f6261666b726569646b343267636e6966676f6d3475716337346875687176787a3732796a666473686a716a6b77756b6f77336f69776e756b753765000000000000000000000000000000000000000000000000000000000000",
        "nonce": "0xae",
        "chainId": "0xa869"
      },
      "additionalContracts": [],
      "isFixedGasLimit": false
    }
  ],
  "receipts": [
    {
      "status": "0x1",
      "cumulativeGasUsed": "0x544cb",
      "logs": [
        {
          "address": "0x0af39c275ed7698f6e5b4c676f3396db88db5ed9",
          "topics": [
            "0xddf252ad1be2c89b69c2b068fc378daa952ba7f163c4a11628f55a4df523b3ef",
            "0x0000000000000000000000000000000000000000000000000000000000000000",
            "0x000000000000000000000000424bba2a6f1c14e4d8e2cf1bcae1b06740fa4755",
            "0x0000000000000000000000000000000000000000000000000000000000000003"
          ],
          "data": "0x",
          "blockHash": "0xc5324910468a653dbc22dbf7b191e552ff5affe17b0eb9f2df766d8b73d12273",
          "blockNumber": "0x256aab5",
          "transactionHash": "0x7bfb7e4db3d1183afcca2fda8daf6289dc74cac0acc689b9b9438d8f56ccfbbc",
          "transactionIndex": "0x0",
          "logIndex": "0x0",
          "removed": false
        },
        {
          "address": "0x0af39c275ed7698f6e5b4c676f3396db88db5ed9",
          "topics": [
            "0xf8e1a15aba9398e019f0b49df1a4fde98ee17ae345cb5f6b5e2c27f5033e8ce7"
          ],
          "data": "0x0000000000000000000000000000000000000000000000000000000000000003",
          "blockHash": "0xc5324910468a653dbc22dbf7b191e552ff5affe17b0eb9f2df766d8b73d12273",
          "blockNumber": "0x256aab5",
          "transactionHash": "0x7bfb7e4db3d1183afcca2fda8daf6289dc74cac0acc689b9b9438d8f56ccfbbc",
          "transactionIndex": "0x0",
          "logIndex": "0x1",
          "removed": false
        },
        {
          "address": "0x0af39c275ed7698f6e5b4c676f3396db88db5ed9",
          "topics": [
            "0xe768813546e23b724434f7fec2919cc3b20a39442602c602009edb1998dd5518",
            "0x0000000000000000000000000000000000000000000000000000000000000003",
            "0x000000000000000000000000424bba2a6f1c14e4d8e2cf1bcae1b06740fa4755"
          ],
          "data": "0x0000000000000000000000000000000000000000000000000000000000000040000000000000000000000000000000000000000000000000002386f26fc10000000000000000000000000000000000000000000000000000000000000000001e5468697320746f6b656e20697320746865206669727374206176617461720000",
          "blockHash": "0xc5324910468a653dbc22dbf7b191e552ff5affe17b0eb9f2df766d8b73d12273",
          "blockNumber": "0x256aab5",
          "transactionHash": "0x7bfb7e4db3d1183afcca2fda8daf6289dc74cac0acc689b9b9438d8f56ccfbbc",
          "transactionIndex": "0x0",
          "logIndex": "0x2",
          "removed": false
        }
      ],
      "logsBloom": "0x00000000000000000000000000000000000000000900000000000000000000000000000000000000000000000000000000000000020000000000000000000040000000000000000000000008000000000000000000000000000000000000000000000000020000000000000000040800000000000000000000000010000040000000000000000000000000000000000000000000000000000100000000000000000000000008000000000000000000002000000000800000000000000000408000000002000000000000000000000080000000000000000000000000020020000000000000000000200000000000000000000000000000000000000000000000",
      "type": "0x2",
      "transactionHash": "0x7bfb7e4db3d1183afcca2fda8daf6289dc74cac0acc689b9b9438d8f56ccfbbc",
      "transactionIndex": "0x0",
      "blockHash": "0xc5324910468a653dbc22dbf7b191e552ff5affe17b0eb9f2df766d8b73d12273",
      "blockNumber": "0x256aab5",
      "gasUsed": "0x544cb",
      "effectiveGasPrice": "0x59682f01",
      "from": "0xb76c4d0bdc1b1508b66a36be5fdc362cc79988b3",
      "to": "0x0af39c275ed7698f6e5b4c676f3396db88db5ed9",
      "contractAddress": null
    }
  ],
  "libraries": [],
  "pending": [],
  "returns": {},
  "timestamp": 1743927240,
  "chain": 43113,
  "commit": "321b77f"
}