{
  "transactions": [
    {
      "hash": "0x0d926ac88c1d81022bcc4d42eb128880bf661df784199b4f51716a2945c7a4d9",
      "transactionType": "CALL",
      "contractName": null,
      "contractAddress": "0x058ab75241027b15863c27581b3dcb49e52540fa",
      "function": "mint(address,string,string,uint256,string)",
      "arguments": [
        "0x424bBA2a6f1c14e4D8e2Cf1bCAE1B06740Fa4755",
        "This token is the first avatar",
        "ipfs://bafkreidk42gcnifgom4uqc74huhqvxz72yjfdshjqjkwukow3oiwnuku7e",
        "10000000000000000",
        "ipfs://bafkreidk42gcnifgom4uqc74huhqvxz72yjfdshjqjkwukow3oiwnuku7e"
      ],
      "transaction": {
        "from": "0xb76c4d0bdc1b1508b66a36be5fdc362cc79988b3",
        "to": "0x058ab75241027b15863c27581b3dcb49e52540fa",
        "gas": "0x8f6d9",
        "value": "0x0",
        "input": "0xfd1c0657000000000000000000000000424bba2a6f1c14e4d8e2cf1bcae1b06740fa475500000000000000000000000000000000000000000000000000000000000000a000000000000000000000000000000000000000000000000000000000000000e0000000000000000000000000000000000000000000000000002386f26fc100000000000000000000000000000000000000000000000000000000000000000160000000000000000000000000000000000000000000000000000000000000001e5468697320746f6b656e206973207468652066697273742061766174617200000000000000000000000000000000000000000000000000000000000000000042697066733a2f2f6261666b726569646b343267636e6966676f6d3475716337346875687176787a3732796a666473686a716a6b77756b6f77336f69776e756b7537650000000000000000000000000000000000000000000000000000000000000000000000000000000000000000000000000000000000000000000000000042697066733a2f2f6261666b726569646b343267636e6966676f6d3475716337346875687176787a3732796a666473686a716a6b77756b6f77336f69776e756b753765000000000000000000000000000000000000000000000000000000000000",
        "nonce": "0xb0",
        "chainId": "0xa869"
      },
      "additionalContracts": [],
      "isFixedGasLimit": false
    }
  ],
  "receipts": [
    {
      "status": "0x1",
      "cumulativeGasUsed": "0x62121",
      "logs": [
        {
          "address": "0x058ab75241027b15863c27581b3dcb49e52540fa",
          "topics": [
            "0xddf252ad1be2c89b69c2b068fc378daa952ba7f163c4a11628f55a4df523b3ef",
            "0x0000000000000000000000000000000000000000000000000000000000000000",
            "0x000000000000000000000000424bba2a6f1c14e4d8e2cf1bcae1b06740fa4755",
            "0x0000000000000000000000000000000000000000000000000000000000000001"
          ],
          "data": "0x",
          "blockHash": "0x31e5d57680727d1ff514f06e7da19df9e24e48ef60bfac7de48ee251eaf2589c",
          "blockNumber": "0x256c191",
          "transactionHash": "0x0d926ac88c1d81022bcc4d42eb128880bf661df784199b4f51716a2945c7a4d9",
          "transactionIndex": "0x0",
          "logIndex": "0x0",
          "removed": false
        },
        {
          "address": "0x058ab75241027b15863c27581b3dcb49e52540fa",
          "topics": [
            "0xf8e1a15aba9398e019f0b49df1a4fde98ee17ae345cb5f6b5e2c27f5033e8ce7"
          ],
          "data": "0x0000000000000000000000000000000000000000000000000000000000000001",
          "blockHash": "0x31e5d57680727d1ff514f06e7da19df9e24e48ef60bfac7de48ee251eaf2589c",
          "blockNumber": "0x256c191",
          "transactionHash": "0x0d926ac88c1d81022bcc4d42eb128880bf661df784199b4f51716a2945c7a4d9",
          "transactionIndex": "0x0",
          "logIndex": "0x1",
          "removed": false
        },
        {
          "address": "0x058ab75241027b15863c27581b3dcb49e52540fa",
          "topics": [
            "0xe768813546e23b724434f7fec2919cc3b20a39442602c602009edb1998dd5518",
            "0x0000000000000000000000000000000000000000000000000000000000000001",
            "0x000000000000000000000000424bba2a6f1c14e4d8e2cf1bcae1b06740fa4755"
          ],
          "data": "0x0000000000000000000000000000000000000000000000000000000000000040000000000000000000000000000000000000000000000000002386f26fc10000000000000000000000000000000000000000000000000000000000000000001e5468697320746f6b656e20697320746865206669727374206176617461720000",
          "blockHash": "0x31e5d57680727d1ff514f06e7da19df9e24e48ef60bfac7de48ee251eaf2589c",
          "blockNumber": "0x256c191",
          "transactionHash": "0x0d926ac88c1d81022bcc4d42eb128880bf661df784199b4f51716a2945c7a4d9",
          "transactionIndex": "0x0",
          "logIndex": "0x2",
          "removed": false
        }
      ],
      "logsBloom": "0x00000000000000000000000000000000000000000900000000000000000000000000000000000000000020000000000000000000000000000000000000040040000000000000000000000008000000000000000000040000000000000000000000000000020000000000000000040800000000000000000000000010000000000000000000000000000000000000000000000000000000000100080000000000000000000000000000000000000000002000000000000000000000000000008000000002000000000000000000000040000000000000000000000000020060000000000000000000200000000000000000000000000000000000000000000000",
      "type": "0x2",
      "transactionHash": "0x0d926ac88c1d81022bcc4d42eb128880bf661df784199b4f51716a2945c7a4d9",
      "transactionIndex": "0x0",
      "blockHash": "0x31e5d57680727d1ff514f06e7da19df9e24e48ef60bfac7de48ee251eaf2589c",
      "blockNumber": "0x256c191",
      "gasUsed": "0x62121",
      "effectiveGasPrice": "0x59682f01",
      "from": "0xb76c4d0bdc1b1508b66a36be5fdc362cc79988b3",
      "to": "0x058ab75241027b15863c27581b3dcb49e52540fa",
      "contractAddress": null
    }
  ],
  "libraries": [],
  "pending": [],
  "returns": {},
  "timestamp": 1743944396,
  "chain": 43113,
  "commit": "da5d270"
}